{
	"03. FundMe/explainerContracts/SafeMathTesterV8.sol": {
		"SafeMathTester": {
			"abi": [
				{
					"inputs": [],
					"name": "add",
					"outputs": [],
					"stateMutability": "nonpayable",
					"type": "function"
				},
				{
					"inputs": [],
					"name": "bigNumber",
					"outputs": [
						{
							"internalType": "uint8",
							"name": "",
							"type": "uint8"
						}
					],
					"stateMutability": "view",
					"type": "function"
				}
			],
			"devdoc": {
				"kind": "dev",
				"methods": {},
				"version": 1
			},
			"evm": {
				"assembly": "    /* \"03. FundMe/explainerContracts/SafeMathTesterV8.sol\":57:210  contract SafeMathTester{... */\n  mstore(0x40, 0x80)\n    /* \"03. FundMe/explainerContracts/SafeMathTesterV8.sol\":111:114  255 */\n  0xff\n    /* \"03. FundMe/explainerContracts/SafeMathTesterV8.sol\":86:114  uint8 public bigNumber = 255 */\n  0x00\n  dup1\n  0x0100\n  exp\n  dup2\n  sload\n  dup2\n  0xff\n  mul\n  not\n  and\n  swap1\n  dup4\n  0xff\n  and\n  mul\n  or\n  swap1\n  sstore\n  pop\n    /* \"03. FundMe/explainerContracts/SafeMathTesterV8.sol\":57:210  contract SafeMathTester{... */\n  callvalue\n  dup1\n  iszero\n  tag_1\n  jumpi\n  0x00\n  dup1\n  revert\ntag_1:\n  pop\n  dataSize(sub_0)\n  dup1\n  dataOffset(sub_0)\n  0x00\n  codecopy\n  0x00\n  return\nstop\n\nsub_0: assembly {\n        /* \"03. FundMe/explainerContracts/SafeMathTesterV8.sol\":57:210  contract SafeMathTester{... */\n      mstore(0x40, 0x80)\n      callvalue\n      dup1\n      iszero\n      tag_1\n      jumpi\n      0x00\n      dup1\n      revert\n    tag_1:\n      pop\n      jumpi(tag_2, lt(calldatasize, 0x04))\n      shr(0xe0, calldataload(0x00))\n      dup1\n      0x45964e9e\n      eq\n      tag_3\n      jumpi\n      dup1\n      0x4f2be91f\n      eq\n      tag_4\n      jumpi\n    tag_2:\n      0x00\n      dup1\n      revert\n        /* \"03. FundMe/explainerContracts/SafeMathTesterV8.sol\":86:114  uint8 public bigNumber = 255 */\n    tag_3:\n      tag_5\n      tag_6\n      jump\t// in\n    tag_5:\n      mload(0x40)\n      tag_7\n      swap2\n      swap1\n      tag_8\n      jump\t// in\n    tag_7:\n      mload(0x40)\n      dup1\n      swap2\n      sub\n      swap1\n      return\n        /* \"03. FundMe/explainerContracts/SafeMathTesterV8.sol\":132:208  function add() public {... */\n    tag_4:\n      tag_9\n      tag_10\n      jump\t// in\n    tag_9:\n      stop\n        /* \"03. FundMe/explainerContracts/SafeMathTesterV8.sol\":86:114  uint8 public bigNumber = 255 */\n    tag_6:\n      0x00\n      dup1\n      sload\n      swap1\n      0x0100\n      exp\n      swap1\n      div\n      0xff\n      and\n      dup2\n      jump\t// out\n        /* \"03. FundMe/explainerContracts/SafeMathTesterV8.sol\":132:208  function add() public {... */\n    tag_10:\n        /* \"03. FundMe/explainerContracts/SafeMathTesterV8.sol\":199:200  1 */\n      0x01\n        /* \"03. FundMe/explainerContracts/SafeMathTesterV8.sol\":187:196  bigNumber */\n      0x00\n      dup1\n      sload\n      swap1\n      0x0100\n      exp\n      swap1\n      div\n      0xff\n      and\n        /* \"03. FundMe/explainerContracts/SafeMathTesterV8.sol\":187:200  bigNumber + 1 */\n      add\n        /* \"03. FundMe/explainerContracts/SafeMathTesterV8.sol\":175:184  bigNumber */\n      0x00\n      dup1\n        /* \"03. FundMe/explainerContracts/SafeMathTesterV8.sol\":175:200  bigNumber = bigNumber + 1 */\n      0x0100\n      exp\n      dup2\n      sload\n      dup2\n      0xff\n      mul\n      not\n      and\n      swap1\n      dup4\n      0xff\n      and\n      mul\n      or\n      swap1\n      sstore\n      pop\n        /* \"03. FundMe/explainerContracts/SafeMathTesterV8.sol\":132:208  function add() public {... */\n      jump\t// out\n        /* \"#utility.yul\":7:93   */\n    tag_12:\n        /* \"#utility.yul\":42:49   */\n      0x00\n        /* \"#utility.yul\":82:86   */\n      0xff\n        /* \"#utility.yul\":75:80   */\n      dup3\n        /* \"#utility.yul\":71:87   */\n      and\n        /* \"#utility.yul\":60:87   */\n      swap1\n      pop\n        /* \"#utility.yul\":7:93   */\n      swap2\n      swap1\n      pop\n      jump\t// out\n        /* \"#utility.yul\":99:211   */\n    tag_13:\n        /* \"#utility.yul\":182:204   */\n      tag_17\n        /* \"#utility.yul\":198:203   */\n      dup2\n        /* \"#utility.yul\":182:204   */\n      tag_12\n      jump\t// in\n    tag_17:\n        /* \"#utility.yul\":177:180   */\n      dup3\n        /* \"#utility.yul\":170:205   */\n      mstore\n        /* \"#utility.yul\":99:211   */\n      pop\n      pop\n      jump\t// out\n        /* \"#utility.yul\":217:431   */\n    tag_8:\n        /* \"#utility.yul\":306:310   */\n      0x00\n        /* \"#utility.yul\":344:346   */\n      0x20\n        /* \"#utility.yul\":333:342   */\n      dup3\n        /* \"#utility.yul\":329:347   */\n      add\n        /* \"#utility.yul\":321:347   */\n      swap1\n      pop\n        /* \"#utility.yul\":357:424   */\n      tag_19\n        /* \"#utility.yul\":421:422   */\n      0x00\n        /* \"#utility.yul\":410:419   */\n      dup4\n        /* \"#utility.yul\":406:423   */\n      add\n        /* \"#utility.yul\":397:403   */\n      dup5\n        /* \"#utility.yul\":357:424   */\n      tag_13\n      jump\t// in\n    tag_19:\n        /* \"#utility.yul\":217:431   */\n      swap3\n      swap2\n      pop\n      pop\n      jump\t// out\n\n    auxdata: 0xa2646970667358221220e89b43ca615b430fcd747edbdb74892153f9b86264f0c1a532fb11e42a3f7d2264736f6c63430008150033\n}\n",
				"bytecode": {
					"linkReferences": {},
					"object": "608060405260ff5f806101000a81548160ff021916908360ff160217905550348015610029575f80fd5b5060f6806100365f395ff3fe6080604052348015600e575f80fd5b50600436106030575f3560e01c806345964e9e1460345780634f2be91f14604e575b5f80fd5b603a6056565b6040516045919060a9565b60405180910390f35b60546066565b005b5f8054906101000a900460ff1681565b60015f8054906101000a900460ff16015f806101000a81548160ff021916908360ff160217905550565b5f60ff82169050919050565b60a3816090565b82525050565b5f60208201905060ba5f830184609c565b9291505056fea2646970667358221220e89b43ca615b430fcd747edbdb74892153f9b86264f0c1a532fb11e42a3f7d2264736f6c63430008150033",
					"opcodes": "PUSH1 0x80 PUSH1 0x40 MSTORE PUSH1 0xFF PUSH0 DUP1 PUSH2 0x100 EXP DUP2 SLOAD DUP2 PUSH1 0xFF MUL NOT AND SWAP1 DUP4 PUSH1 0xFF AND MUL OR SWAP1 SSTORE POP CALLVALUE DUP1 ISZERO PUSH2 0x29 JUMPI PUSH0 DUP1 REVERT JUMPDEST POP PUSH1 0xF6 DUP1 PUSH2 0x36 PUSH0 CODECOPY PUSH0 RETURN INVALID PUSH1 0x80 PUSH1 0x40 MSTORE CALLVALUE DUP1 ISZERO PUSH1 0xE JUMPI PUSH0 DUP1 REVERT JUMPDEST POP PUSH1 0x4 CALLDATASIZE LT PUSH1 0x30 JUMPI PUSH0 CALLDATALOAD PUSH1 0xE0 SHR DUP1 PUSH4 0x45964E9E EQ PUSH1 0x34 JUMPI DUP1 PUSH4 0x4F2BE91F EQ PUSH1 0x4E JUMPI JUMPDEST PUSH0 DUP1 REVERT JUMPDEST PUSH1 0x3A PUSH1 0x56 JUMP JUMPDEST PUSH1 0x40 MLOAD PUSH1 0x45 SWAP2 SWAP1 PUSH1 0xA9 JUMP JUMPDEST PUSH1 0x40 MLOAD DUP1 SWAP2 SUB SWAP1 RETURN JUMPDEST PUSH1 0x54 PUSH1 0x66 JUMP JUMPDEST STOP JUMPDEST PUSH0 DUP1 SLOAD SWAP1 PUSH2 0x100 EXP SWAP1 DIV PUSH1 0xFF AND DUP2 JUMP JUMPDEST PUSH1 0x1 PUSH0 DUP1 SLOAD SWAP1 PUSH2 0x100 EXP SWAP1 DIV PUSH1 0xFF AND ADD PUSH0 DUP1 PUSH2 0x100 EXP DUP2 SLOAD DUP2 PUSH1 0xFF MUL NOT AND SWAP1 DUP4 PUSH1 0xFF AND MUL OR SWAP1 SSTORE POP JUMP JUMPDEST PUSH0 PUSH1 0xFF DUP3 AND SWAP1 POP SWAP2 SWAP1 POP JUMP JUMPDEST PUSH1 0xA3 DUP2 PUSH1 0x90 JUMP JUMPDEST DUP3 MSTORE POP POP JUMP JUMPDEST PUSH0 PUSH1 0x20 DUP3 ADD SWAP1 POP PUSH1 0xBA PUSH0 DUP4 ADD DUP5 PUSH1 0x9C JUMP JUMPDEST SWAP3 SWAP2 POP POP JUMP INVALID LOG2 PUSH5 0x6970667358 0x22 SLT KECCAK256 0xE8 SWAP12 NUMBER 0xCA PUSH2 0x5B43 0xF 0xCD PUSH21 0x7EDBDB74892153F9B86264F0C1A532FB11E42A3F7D 0x22 PUSH5 0x736F6C6343 STOP ADDMOD ISZERO STOP CALLER "
				},
				"gasEstimates": {
					"creation": {
						"codeDepositCost": "49200",
						"executionCost": "24363",
						"totalCost": "73563"
					},
					"external": {
						"add()": "26547",
						"bigNumber()": "2441"
					}
				},
				"methodIdentifiers": {
					"add()": "4f2be91f",
					"bigNumber()": "45964e9e"
				}
			},
			"storageLayout": {
				"storage": [
					{
						"astId": 4,
						"contract": "03. FundMe/explainerContracts/SafeMathTesterV8.sol:SafeMathTester",
						"label": "bigNumber",
						"offset": 0,
						"slot": "0",
						"type": "t_uint8"
					}
				],
				"types": {
					"t_uint8": {
						"encoding": "inplace",
						"label": "uint8",
						"numberOfBytes": "1"
					}
				}
			},
			"userdoc": {
				"kind": "user",
				"methods": {},
				"version": 1
			}
		}
	}
}